{
  "_format": "hh-sol-artifact-1",
  "contractName": "TaskContract",
  "sourceName": "contracts/TaskContract.sol",
  "abi": [
    {
      "anonymous": false,
      "inputs": [
        {
          "indexed": false,
          "internalType": "address",
          "name": "recipient",
          "type": "address"
        },
        {
          "indexed": false,
          "internalType": "uint16",
          "name": "taskId",
          "type": "uint16"
        }
      ],
      "name": "AddTask",
      "type": "event"
    },
    {
      "anonymous": false,
      "inputs": [
        {
          "indexed": false,
          "internalType": "uint16",
          "name": "taskId",
          "type": "uint16"
        },
        {
          "indexed": false,
          "internalType": "bool",
          "name": "isDeleted",
          "type": "bool"
        }
      ],
      "name": "DeleteTask",
      "type": "event"
    },
    {
      "anonymous": false,
      "inputs": [
        {
          "indexed": false,
          "internalType": "address",
          "name": "recipient",
          "type": "address"
        },
        {
          "indexed": false,
          "internalType": "string",
          "name": "taskTitle",
          "type": "string"
        },
        {
          "indexed": false,
          "internalType": "string",
          "name": "taskDescription",
          "type": "string"
        }
      ],
      "name": "UpdateTask",
      "type": "event"
    },
    {
      "inputs": [
        {
          "internalType": "string",
          "name": "_taskTitle",
          "type": "string"
        },
        {
          "internalType": "string",
          "name": "_taskDescription",
          "type": "string"
        },
        {
          "internalType": "bool",
          "name": "_isDeleted",
          "type": "bool"
        }
      ],
      "name": "addTask",
      "outputs": [],
      "stateMutability": "nonpayable",
      "type": "function"
    },
    {
      "inputs": [
        {
          "internalType": "uint16",
          "name": "_taskId",
          "type": "uint16"
        }
      ],
      "name": "deleteTask",
      "outputs": [],
      "stateMutability": "nonpayable",
      "type": "function"
    },
    {
      "inputs": [
        {
          "internalType": "uint16",
          "name": "_taskId",
          "type": "uint16"
        }
      ],
      "name": "getTask",
      "outputs": [
        {
          "components": [
            {
              "internalType": "uint16",
              "name": "taskId",
              "type": "uint16"
            },
            {
              "internalType": "string",
              "name": "taskTitle",
              "type": "string"
            },
            {
              "internalType": "string",
              "name": "taskDescription",
              "type": "string"
            },
            {
              "internalType": "bool",
              "name": "isDeleted",
              "type": "bool"
            }
          ],
          "internalType": "struct TaskContract.Task",
          "name": "",
          "type": "tuple"
        }
      ],
      "stateMutability": "view",
      "type": "function"
    },
    {
      "inputs": [],
      "name": "getTasks",
      "outputs": [
        {
          "components": [
            {
              "internalType": "uint16",
              "name": "taskId",
              "type": "uint16"
            },
            {
              "internalType": "string",
              "name": "taskTitle",
              "type": "string"
            },
            {
              "internalType": "string",
              "name": "taskDescription",
              "type": "string"
            },
            {
              "internalType": "bool",
              "name": "isDeleted",
              "type": "bool"
            }
          ],
          "internalType": "struct TaskContract.Task[]",
          "name": "",
          "type": "tuple[]"
        }
      ],
      "stateMutability": "view",
      "type": "function"
    },
    {
      "inputs": [
        {
          "internalType": "uint16",
          "name": "_taskId",
          "type": "uint16"
        },
        {
          "internalType": "string",
          "name": "_taskTitle",
          "type": "string"
        },
        {
          "internalType": "string",
          "name": "_taskDescription",
          "type": "string"
        }
      ],
      "name": "updateTask",
      "outputs": [],
      "stateMutability": "nonpayable",
      "type": "function"
    }
  ],
  "bytecode": "0x608060405234801561001057600080fd5b506113fc806100206000396000f3fe608060405234801561001057600080fd5b50600436106100575760003560e01c806304a87e381461005c5780631db00d0b1461007a57806329a0cb891461009657806375e313d6146100b2578063d2442fc2146100ce575b600080fd5b6100646100fe565b6040516100719190610b84565b60405180910390f35b610094600480360381019061008f9190610d1b565b6104c2565b005b6100b060048036038101906100ab9190610dd2565b610627565b005b6100cc60048036038101906100c79190610dff565b610715565b005b6100e860048036038101906100e39190610dd2565b6107c3565b6040516100f59190610ef4565b60405180910390f35b60606000808054905067ffffffffffffffff8111156101205761011f610bc4565b5b60405190808252806020026020018201604052801561015957816020015b610146610962565b81526020019060019003908161013e5790505b5090506000805b6000805490508161ffff1610156103f4573373ffffffffffffffffffffffffffffffffffffffff16600160008361ffff1661ffff16815260200190815260200160002060009054906101000a900473ffffffffffffffffffffffffffffffffffffffff1673ffffffffffffffffffffffffffffffffffffffff1614801561021b575060008161ffff16815481106101fa576101f9610f16565b5b906000526020600020906004020160030160009054906101000a900460ff16155b156103e15760008161ffff168154811061023857610237610f16565b5b90600052602060002090600402016040518060800160405290816000820160009054906101000a900461ffff1661ffff1661ffff16815260200160018201805461028190610f74565b80601f01602080910402602001604051908101604052809291908181526020018280546102ad90610f74565b80156102fa5780601f106102cf576101008083540402835291602001916102fa565b820191906000526020600020905b8154815290600101906020018083116102dd57829003601f168201915b5050505050815260200160028201805461031390610f74565b80601f016020809104026020016040519081016040528092919081815260200182805461033f90610f74565b801561038c5780601f106103615761010080835404028352916020019161038c565b820191906000526020600020905b81548152906001019060200180831161036f57829003601f168201915b505050505081526020016003820160009054906101000a900460ff161515151581525050838361ffff16815181106103c7576103c6610f16565b5b602002602001018190525081806103dd90610fd4565b9250505b80806103ec90610fd4565b915050610160565b5060008161ffff1667ffffffffffffffff81111561041557610414610bc4565b5b60405190808252806020026020018201604052801561044e57816020015b61043b610962565b8152602001906001900390816104335790505b50905060005b8261ffff168161ffff1610156104b857838161ffff168151811061047b5761047a610f16565b5b6020026020010151828261ffff168151811061049a57610499610f16565b5b602002602001018190525080806104b090610fd4565b915050610454565b5080935050505090565b600080805490509050600060405180608001604052808361ffff168152602001868152602001858152602001841515815250908060018154018082558091505060019003906000526020600020906004020160009091909190915060008201518160000160006101000a81548161ffff021916908361ffff160217905550602082015181600101908161055591906111b4565b50604082015181600201908161056b91906111b4565b5060608201518160030160006101000a81548160ff021916908315150217905550505033600160008361ffff1661ffff16815260200190815260200160002060006101000a81548173ffffffffffffffffffffffffffffffffffffffff021916908373ffffffffffffffffffffffffffffffffffffffff1602179055507feda62859c4a0f2b9c7224c224480a682f6d8b88478abc3f9db14f399aa2e621633826040516106199291906112d6565b60405180910390a150505050565b3373ffffffffffffffffffffffffffffffffffffffff16600160008361ffff1661ffff16815260200190815260200160002060009054906101000a900473ffffffffffffffffffffffffffffffffffffffff1673ffffffffffffffffffffffffffffffffffffffff160361071257600160008261ffff16815481106106af576106ae610f16565b5b906000526020600020906004020160030160006101000a81548160ff0219169083151502179055507ffd19f0060b5a6dc7e962396c82202545f5627484ccf97921c3a923f33911224381600160405161070992919061130e565b60405180910390a15b50565b8160008461ffff168154811061072e5761072d610f16565b5b9060005260206000209060040201600101908161074b91906111b4565b508060008461ffff168154811061076557610764610f16565b5b9060005260206000209060040201600201908161078291906111b4565b507f56e19bfd1b8aea089835a70d517f00be6d594993554408c6554ef5cedd2e42c83383836040516107b693929190611381565b60405180910390a1505050565b6107cb610962565b60008261ffff16815481106107e3576107e2610f16565b5b90600052602060002090600402016040518060800160405290816000820160009054906101000a900461ffff1661ffff1661ffff16815260200160018201805461082c90610f74565b80601f016020809104026020016040519081016040528092919081815260200182805461085890610f74565b80156108a55780601f1061087a576101008083540402835291602001916108a5565b820191906000526020600020905b81548152906001019060200180831161088857829003601f168201915b505050505081526020016002820180546108be90610f74565b80601f01602080910402602001604051908101604052809291908181526020018280546108ea90610f74565b80156109375780601f1061090c57610100808354040283529160200191610937565b820191906000526020600020905b81548152906001019060200180831161091a57829003601f168201915b505050505081526020016003820160009054906101000a900460ff1615151515815250509050919050565b6040518060800160405280600061ffff16815260200160608152602001606081526020016000151581525090565b600081519050919050565b600082825260208201905092915050565b6000819050602082019050919050565b600061ffff82169050919050565b6109d3816109bc565b82525050565b600081519050919050565b600082825260208201905092915050565b60005b83811015610a135780820151818401526020810190506109f8565b60008484015250505050565b6000601f19601f8301169050919050565b6000610a3b826109d9565b610a4581856109e4565b9350610a558185602086016109f5565b610a5e81610a1f565b840191505092915050565b60008115159050919050565b610a7e81610a69565b82525050565b6000608083016000830151610a9c60008601826109ca565b5060208301518482036020860152610ab48282610a30565b91505060408301518482036040860152610ace8282610a30565b9150506060830151610ae36060860182610a75565b508091505092915050565b6000610afa8383610a84565b905092915050565b6000602082019050919050565b6000610b1a82610990565b610b24818561099b565b935083602082028501610b36856109ac565b8060005b85811015610b725784840389528151610b538582610aee565b9450610b5e83610b02565b925060208a01995050600181019050610b3a565b50829750879550505050505092915050565b60006020820190508181036000830152610b9e8184610b0f565b905092915050565b6000604051905090565b600080fd5b600080fd5b600080fd5b600080fd5b7f4e487b7100000000000000000000000000000000000000000000000000000000600052604160045260246000fd5b610bfc82610a1f565b810181811067ffffffffffffffff82111715610c1b57610c1a610bc4565b5b80604052505050565b6000610c2e610ba6565b9050610c3a8282610bf3565b919050565b600067ffffffffffffffff821115610c5a57610c59610bc4565b5b610c6382610a1f565b9050602081019050919050565b82818337600083830152505050565b6000610c92610c8d84610c3f565b610c24565b905082815260208101848484011115610cae57610cad610bbf565b5b610cb9848285610c70565b509392505050565b600082601f830112610cd657610cd5610bba565b5b8135610ce6848260208601610c7f565b91505092915050565b610cf881610a69565b8114610d0357600080fd5b50565b600081359050610d1581610cef565b92915050565b600080600060608486031215610d3457610d33610bb0565b5b600084013567ffffffffffffffff811115610d5257610d51610bb5565b5b610d5e86828701610cc1565b935050602084013567ffffffffffffffff811115610d7f57610d7e610bb5565b5b610d8b86828701610cc1565b9250506040610d9c86828701610d06565b9150509250925092565b610daf816109bc565b8114610dba57600080fd5b50565b600081359050610dcc81610da6565b92915050565b600060208284031215610de857610de7610bb0565b5b6000610df684828501610dbd565b91505092915050565b600080600060608486031215610e1857610e17610bb0565b5b6000610e2686828701610dbd565b935050602084013567ffffffffffffffff811115610e4757610e46610bb5565b5b610e5386828701610cc1565b925050604084013567ffffffffffffffff811115610e7457610e73610bb5565b5b610e8086828701610cc1565b9150509250925092565b6000608083016000830151610ea260008601826109ca565b5060208301518482036020860152610eba8282610a30565b91505060408301518482036040860152610ed48282610a30565b9150506060830151610ee96060860182610a75565b508091505092915050565b60006020820190508181036000830152610f0e8184610e8a565b905092915050565b7f4e487b7100000000000000000000000000000000000000000000000000000000600052603260045260246000fd5b7f4e487b7100000000000000000000000000000000000000000000000000000000600052602260045260246000fd5b60006002820490506001821680610f8c57607f821691505b602082108103610f9f57610f9e610f45565b5b50919050565b7f4e487b7100000000000000000000000000000000000000000000000000000000600052601160045260246000fd5b6000610fdf826109bc565b915061ffff8203610ff357610ff2610fa5565b5b600182019050919050565b60008190508160005260206000209050919050565b60006020601f8301049050919050565b600082821b905092915050565b6000600883026110607fffffffffffffffffffffffffffffffffffffffffffffffffffffffffffffffff82611023565b61106a8683611023565b95508019841693508086168417925050509392505050565b6000819050919050565b6000819050919050565b60006110b16110ac6110a784611082565b61108c565b611082565b9050919050565b6000819050919050565b6110cb83611096565b6110df6110d7826110b8565b848454611030565b825550505050565b600090565b6110f46110e7565b6110ff8184846110c2565b505050565b5b81811015611123576111186000826110ec565b600181019050611105565b5050565b601f8211156111685761113981610ffe565b61114284611013565b81016020851015611151578190505b61116561115d85611013565b830182611104565b50505b505050565b600082821c905092915050565b600061118b6000198460080261116d565b1980831691505092915050565b60006111a4838361117a565b9150826002028217905092915050565b6111bd826109d9565b67ffffffffffffffff8111156111d6576111d5610bc4565b5b6111e08254610f74565b6111eb828285611127565b600060209050601f83116001811461121e576000841561120c578287015190505b6112168582611198565b86555061127e565b601f19841661122c86610ffe565b60005b828110156112545784890151825560018201915060208501945060208101905061122f565b86831015611271578489015161126d601f89168261117a565b8355505b6001600288020188555050505b505050505050565b600073ffffffffffffffffffffffffffffffffffffffff82169050919050565b60006112b182611286565b9050919050565b6112c1816112a6565b82525050565b6112d0816109bc565b82525050565b60006040820190506112eb60008301856112b8565b6112f860208301846112c7565b9392505050565b61130881610a69565b82525050565b600060408201905061132360008301856112c7565b61133060208301846112ff565b9392505050565b600082825260208201905092915050565b6000611353826109d9565b61135d8185611337565b935061136d8185602086016109f5565b61137681610a1f565b840191505092915050565b600060608201905061139660008301866112b8565b81810360208301526113a88185611348565b905081810360408301526113bc8184611348565b905094935050505056fea2646970667358221220e385e1b357449e0db0194bdb187b3e485dd5be5c85ba02c39228ff32cd6524b964736f6c63430008110033",
  "linkReferences": {},
  "deployedLinkReferences": {}
}